:100000000C942A000C943F000C943F000C943F0089
:100010000C943F000C943F000C943F000C943F0064
:100020000C943F000C943F000C943F000C943F0054
:100030000C943F000C943F000C943F000C943F0044
:100040000C943F000C943F000C943F000C943F0034
:100050000C943F0011241FBECFE5D8E0DEBFCDBF1A
:1000600010E0A0E6B0E0E2EEF0E002C005900D92F4
:10007000AA36B107D9F70E9441000C946F000C9486
:100080000000CF93DF93CDB7DEB72A970FB6F89471
:10009000DEBF0FBECDBF8FEF87BB8AE0E0E6F0E0AA
:1000A000DE01119601900D928A95E1F780E090E0D3
:1000B00012C0E1E0F0E0EC0FFD1FE80FF91F208116
:1000C00028BB2FEF31EE44E0215030404040E1F7B3
:1000D00000C0000001968A3091055CF3E7CFF894E8
:0200E000FFCF50
:0A00E200FC60DAF266B6BEE0FEF63E
:00000001FF
