S00D00004C414231302E73726563E7
S11300000C942A000C9434000C9434000C943400A6
S11300100C9434000C9434000C9434000C9434008C
S11300200C9434000C9434000C9434000C9434007C
S11300300C9434000C9434000C9434000C9434006C
S11300400C9434000C9434000C9434000C9434005C
S11300500C94340011241FBECFE5D8E0DEBFCDBF21
S11300600E9476000C94BB000C94000082BB84E0D8
S113007085BB8FE39CE90197F1F700C0000015BA36
S1130080089582BB85E085BB8FE39CE90197F1F776
S113009000C0000081E085BB0895CF93DF93CDECD1
S11300A08C9FC12D1124C695C695C6952C2F220F61
S11300B0922F990F990F920FD82FD91B8DE80E9478
S11300C0360080E38C0F0E94410080E38D0F0E9474
S11300D04100DF91CF91089588E30E9436008FE0BC
S11300E00E94360081E00E94360008958FEF87BB9E
S11300F084BB0E946C0080E80E94360084E50E9464
S1130100410085E40E9441008DE40E94410080E5A5
S11301100E94410085E40E94410082E50E94410062
S113012081E40E94410084E50E94410085E50E942B
S1130130410082E50E94410085E40E9441008AE377
S11301400E9441008AB381608ABB87E886B980EE49
S113015087B986B1806486B9349BFECF85B10E948D
S11301604D002FEF89E698E1215080409040E1F75F
S10D017000C00000EECFF894FFCFAA
S9030000FC
