S01000004C4142335F2843292E737265631F
S11300000C942A000C943F000C943F000C943F0085
S11300100C943F000C943F000C943F000C943F0060
S11300200C943F000C943F000C943F000C943F0050
S11300300C943F000C943F000C943F000C943F0040
S11300400C943F000C943F000C943F000C943F0030
S11300500C943F0011241FBECFE5D8E0DEBFCDBF16
S113006010E0A0E6B0E0ECE2F1E002C005900D92F1
S1130070A836B107D9F70E9441000C9494000C945F
S11300800000CF93DF93CDB7DEB728970FB6F8946F
S1130090DEBF0FBECDBF88E0E0E6F0E0DE011196E2
S11300A001900D928A95E1F78FEF8ABB80E01CC026
S11300B0E1E0F0E0EC0FFD1FE80FF11D90819BBB28
S11300C02FEF31EE94E0215030409040E1F700C032
S11300D000001BBA2FEF31EE94E0215030409040E5
S11300E0E1F700C000008F5F883010F387E0E1E0A3
S11300F0F0E0EC0FFD1FE80FF11D90819BBB2FEF8B
S113010031EE94E0215030409040E1F700C000000F
S11301101BBA2FEF31EE94E0215030409040E1F7CC
S10F012000C000008150E3CFF894FFCF32
S10B012C0102030405060708A3
S9030000FC
