:100000000C942A000C9434000C9434000C943400AA
:100010000C9434000C9434000C9434000C94340090
:100020000C9434000C9434000C9434000C94340080
:100030000C9434000C9434000C9434000C94340070
:100040000C9434000C9434000C9434000C94340060
:100050000C94340011241FBECFE5D8E0DEBFCDBF25
:100060000E94C7000C9406010C9400008BBB84E036
:1000700088BB8FE39CE90197F1F700C0000018BA34
:1000800008958BBB85E088BB8FE39CE90197F1F76E
:1000900000C0000081E088BB089588E30E9436001C
:1000A0008FE00E94360081E00E943600089583B3FD
:1000B000813021F481E30E944100089583B38230AE
:1000C00021F482E30E944100089583B3843021F437
:1000D00083E30E944100089583B3883019F484E3D8
:1000E0000E944100089583B3813021F485E30E948A
:1000F0004100089583B3823021F486E30E944100D9
:10010000089583B3843021F487E30E944100089569
:1001100083B3883019F488E30E944100089583B3C3
:10012000813021F489E30E944100089583B3823035
:1001300021F481E40E944100089583B3843021F4C6
:1001400082E40E944100089583B3883019F483E467
:100150000E944100089583B3813021F484E40E9419
:100160004100089583B3823021F485E40E94410068
:10017000089583B3843021F486E40E9441000895F9
:1001800083B3883019F487E40E94410008958FEF0B
:100190008ABB87BB14BA81BB0E944D0081E40E94D8
:1001A000410080E782BB0E9457002FEF80E792E07A
:1001B000215080409040E1F700C0000080EB82BBFE
:1001C0000E9473002FEF80E792E021508040904022
:1001D000E1F700C0000080ED82BB0E948F002FEF8E
:1001E00080E792E0215080409040E1F700C000009D
:1001F00080EE82BB0E94AB002FEF80E792E021509F
:1002000080409040E1F700C00000CBCFF894FFCFD2
:00000001FF
