S01900004C414238284D696E6950726F6A656374292E737265634F
S11300000C942A000C943F000C943F000C943F0085
S11300100C943F000C943F000C943F000C943F0060
S11300200C943F000C943F000C943F000C943F0050
S11300300C943F000C943F000C943F000C943F0040
S11300400C943F000C943F000C943F000C943F0030
S11300500C943F0011241FBECFE5D8E0DEBFCDBF16
S113006010E0A0E6B0E0E0EFF1E002C005900D92F0
S1130070AE36B107D9F70E948E000C94F6000C94AA
S113008000008BBB84E088BB8FE39CE90197F1F708
S113009000C0000018BA08958BBB85E088BB8FE3CD
S11300A09CE90197F1F700C0000081E088BB089546
S11300B081E00E94410088E30E9441008FE00E9499
S11300C0410008958FEF82BB83B38F3F31F48FE4F7
S11300D00E944C0081E090E0089583E40E944C006B
S11300E0089583B38F3F19F081E090E00895089557
S11300F00F931F93CF93DF938C01C0E0D0E003C034
S11301000E944C002196F801EC0FFD1F80818111A3
S1130110F7CFDF91CF911F910F9108958FEF8ABB95
S113012087BB81BB14BA0E94580080E690E00E940D
S1130130780080EC0E9441000E9462000197E1F780
S11301400E9471000197C1F78FE39CE90197F1F7D1
S113015000C000000E947100019771F712BA83B3C6
S1130160813071F482BB81E30E944C009FEF20E751
S113017082E0915020408040E1F700C0000033C08D
S1130180823079F481E082BB82E30E944C009FEFCD
S113019020E782E0915020408040E1F700C0000059
S11301A022C0843079F481E082BB83E30E944C0056
S11301B09FEF20E782E0915020408040E1F700C0AB
S11301C0000011C0883009F0B7CF81E082BB84E31E
S11301D00E944C009FEF20E782E091502040804035
S11301E0E1F700C0000080E090E00895F894FFCFAC
S11101F0507261636564206B6579733A000098
S9030000FC
