S00E00004C4142325F332E7372656383
S11300000C942A000C943F000C943F000C943F0085
S11300100C943F000C943F000C943F000C943F0060
S11300200C943F000C943F000C943F000C943F0050
S11300300C943F000C943F000C943F000C943F0040
S11300400C943F000C943F000C943F000C943F0030
S11300500C943F0011241FBECFE5D8E0DEBFCDBF16
S113006010E0A0E6B0E0ECECF0E002C005900D92E8
S1130070A836B107D9F70E9441000C9464000C948F
S11300800000CF93DF93CDB7DEB728970FB6F8946F
S1130090DEBF0FBECDBF88E0E0E6F0E0DE011196E2
S11300A001900D928A95E1F78FEF84BB80E009C03F
S11300B0E1E0F0E0EC0FFD1FE80FF11D908195BB2E
S10F00C08F5F8930A8F3F2CFF894FFCFD3
S10B00CC010203040506070804
S9030000FC
