:100000000C942A000C943F000C943F000C943F0089
:100010000C943F000C943F000C943F000C943F0064
:100020000C943F000C943F000C943F000C943F0054
:100030000C943F000C943F000C943F000C943F0044
:100040000C943F000C943F000C943F000C943F0034
:100050000C943F0011241FBECFE5D8E0DEBFCDBF1A
:1000600010E0A0E6B0E0EAEFF0E002C005900D92EB
:10007000AE37B107D9F70E944C000C947B000C946A
:10008000000088E08AB986E880BD83E389B90895D5
:100090005D9BFECF8CB90895CF93DF93CDB7DEB7CC
:1000A0006E970FB6F894DEBF0FBECDBF82E1E0E6DB
:1000B000F0E0DE01119601900D928A95E1F7FE01C4
:1000C00073968CE0DF011D928A95E9F70E9441004A
:1000D00080E003C0812F01C080E011E0180FE1E053
:1000E000F0E0EC0FFD1FE80FF11D80810E94480039
:0A00F0001E3190F7EFCFF894FFCF18
:1000FA004D79204E616D65206973204D6179616E7D
:0E010A006B000000000000000000000000007C
:00000001FF
