:100000000C942A000C943F000C943F000C943F0089
:100010000C943F000C943F000C943F000C943F0064
:100020000C943F000C943F000C943F000C943F0054
:100030000C943F000C943F000C943F000C943F0044
:100040000C943F000C943F000C943F000C943F0034
:100050000C943F0011241FBECFE5D8E0DEBFCDBF1A
:1000600010E0A0E6B0E0ECEFF0E002C005900D92E9
:10007000A037B107D9F70E9441000C947C000C9482
:100080000000CF93DF93CDB7DEB760970FB6F8943B
:10009000DEBF0FBECDBF8FEF8ABB80E1E0E6F0E0B0
:1000A000DE01119601900D928A95E1F780E090E0D3
:1000B0001FC0FC01EE0FFF1F21E030E02C0F3D1FA1
:1000C000E20FF31F20812BBB3FEF41EE24E03150C4
:1000D00040402040E1F700C000001BBA3FEF41EE76
:1000E00024E0315040402040E1F700C0000001967C
:0C00F00088309105F4F2DACFF894FFCFCD
:1000FC0001000200040008001000200040008000F5
:00000001FF
