:100000000C942A000C9434000C9434000C943400AA
:100010000C9434000C9434000C9434000C94340090
:100020000C9434000C9434000C9434000C94340080
:100030000C9434000C9434000C9434000C94340070
:100040000C9434000C9434000C9434000C94340060
:100050000C94340011241FBECFE5D8E0DEBFCDBF25
:100060000E9436000C946F000C9400008FEF84BB4C
:1000700015BA2FEF81EE94E0215080409040E1F7D7
:1000800000C0000085E085BB2FEF81EE94E0215099
:1000900080409040E1F700C0000088E285BB2FEF70
:1000A00081EE94E0215080409040E1F700C00000D4
:1000B0008DE285BB2FEF81EE94E02150804090408F
:1000C000E1F700C000008EE185BB2FEF81EE94E0E8
:1000D000215080409040E1F700C00000C9CFF89463
:0200E000FFCF50
:00000001FF
