:100000000C942A000C9434000C9434000C943400AA
:100010000C9434000C9434000C9434000C94340090
:100020000C9434000C9434000C9434000C94340080
:100030000C9434000C9434000C9434000C94340070
:100040000C9434000C9434000C9434000C94340060
:100050000C94340011241FBECFE5D8E0DEBFCDBF25
:100060000E9436000C948A000C940000CF93DF931A
:10007000CDB7DEB764970FB6F894DEBF0FBECDBF25
:100080008FEF8ABB82E090E09A83898384E090E0DE
:100090009C838B8386E090E09E838D8388E090E054
:1000A00098878F838AE090E09A8789878CE090E038
:1000B0009C878B878EE090E09E878D8780E190E023
:1000C000988B8F8782E190E09A8B898B84E190E016
:1000D0009C8B8B8B80E090E019C0FC01EE0FFF1F22
:1000E00021E030E02C0F3D1FE20FF31F20812BBBDE
:1000F000E7EAF1E63197F1F700C000001BBAE7EA42
:10010000F1E63197F1F700C0000001968A309105C1
:0801100024F3E0CFF894FFCFC7
:00000001FF
