S00C00004C4142362E7372656313
S11300000C942A000C9434000C9434000C943400A6
S11300100C9434000C9434000C9434000C9434008C
S11300200C9434000C9434000C9434000C9434007C
S11300300C9434000C9434000C9434000C9434006C
S11300400C9434000C9434000C9434000C9434005C
S11300500C94340011241FBECFE5D8E0DEBFCDBF21
S11300600E9436000C9465000C9400008FEF84BB52
S113007088E085BB2FEF89E698E1215080409040CD
S1130080E1F700C0000084E085BB2FEF89E698E12A
S1130090215080409040E1F700C0000082E085BB21
S11300A02FEF89E698E1215080409040E1F700C0AD
S11300B0000081E085BB2FEF89E698E12150804064
S11100C09040E1F700C00000D3CFF894FFCFCA
S9030000FC
