:100000000C942A000C943F000C943F000C943F0089
:100010000C943F000C943F000C943F000C943F0064
:100020000C943F000C943F000C943F000C943F0054
:100030000C943F000C943F000C943F000C943F0044
:100040000C943F000C943F000C943F000C943F0034
:100050000C943F0011241FBECFE5D8E0DEBFCDBF1A
:1000600010E0A0E6B0E0E4E0F1E002C005900D92FF
:10007000AA36B107D9F70E9441000C9480000C9475
:100080000000CF93DF93CDB7DEB72A970FB6F89471
:10009000DEBF0FBECDBF8FEF8ABB87BB8AE0E0E635
:1000A000F0E0DE01119601900D928A95E1F740E0B3
:1000B00050E022C0E1E0F0E0EC0FFD1FE40FF51F7F
:1000C000808188BB80E090E012C0E1E0F0E0EC0FBE
:1000D000FD1FE80FF91F20812BBB2FEF31EE64E0ED
:1000E000215030406040E1F700C0000001968A30A6
:1000F00091055CF34F5F5F4F4A305105DCF2D7CF7B
:04010000F894FFCFA1
:0A010400FC60DAF266B6BEE0FEF61B
:00000001FF
