S01700004763634170706C69636174696F6E312E737265635B
S11300000C942A000C9434000C9434000C943400A6
S11300100C9434000C9434000C9434000C9434008C
S11300200C9434000C9434000C9434000C9434007C
S11300300C9434000C9434000C9434000C9434006C
S11300400C9434000C9434000C9434000C9434005C
S11300500C94340011241FBECFE5D8E0DEBFCDBF21
S11300600E9436000C9448000C9400008FEF87BB6C
S11300708FEF88BB87EA91E60197F1F700C0000093
S113008018BA87EA91E60197F1F700C00000F0CFB3
S1070090F894FFCF0E
S9030000FC
